{
  "_format": "hh-sol-artifact-1",
  "contractName": "StockvelNFT",
  "sourceName": "contracts/StokvelNFT.sol",
  "abi": [
    {
      "inputs": [
        {
          "internalType": "address",
          "name": "_treasury",
          "type": "address"
        },
        {
          "internalType": "address",
          "name": "_stableCoin",
          "type": "address"
        }
      ],
      "stateMutability": "nonpayable",
      "type": "constructor"
    },
    {
      "inputs": [
        {
          "internalType": "address",
          "name": "sender",
          "type": "address"
        },
        {
          "internalType": "uint256",
          "name": "tokenId",
          "type": "uint256"
        },
        {
          "internalType": "address",
          "name": "owner",
          "type": "address"
        }
      ],
      "name": "ERC721IncorrectOwner",
      "type": "error"
    },
    {
      "inputs": [
        {
          "internalType": "address",
          "name": "operator",
          "type": "address"
        },
        {
          "internalType": "uint256",
          "name": "tokenId",
          "type": "uint256"
        }
      ],
      "name": "ERC721InsufficientApproval",
      "type": "error"
    },
    {
      "inputs": [
        {
          "internalType": "address",
          "name": "approver",
          "type": "address"
        }
      ],
      "name": "ERC721InvalidApprover",
      "type": "error"
    },
    {
      "inputs": [
        {
          "internalType": "address",
          "name": "operator",
          "type": "address"
        }
      ],
      "name": "ERC721InvalidOperator",
      "type": "error"
    },
    {
      "inputs": [
        {
          "internalType": "address",
          "name": "owner",
          "type": "address"
        }
      ],
      "name": "ERC721InvalidOwner",
      "type": "error"
    },
    {
      "inputs": [
        {
          "internalType": "address",
          "name": "receiver",
          "type": "address"
        }
      ],
      "name": "ERC721InvalidReceiver",
      "type": "error"
    },
    {
      "inputs": [
        {
          "internalType": "address",
          "name": "sender",
          "type": "address"
        }
      ],
      "name": "ERC721InvalidSender",
      "type": "error"
    },
    {
      "inputs": [
        {
          "internalType": "uint256",
          "name": "tokenId",
          "type": "uint256"
        }
      ],
      "name": "ERC721NonexistentToken",
      "type": "error"
    },
    {
      "inputs": [
        {
          "internalType": "address",
          "name": "owner",
          "type": "address"
        }
      ],
      "name": "OwnableInvalidOwner",
      "type": "error"
    },
    {
      "inputs": [
        {
          "internalType": "address",
          "name": "account",
          "type": "address"
        }
      ],
      "name": "OwnableUnauthorizedAccount",
      "type": "error"
    },
    {
      "anonymous": false,
      "inputs": [
        {
          "indexed": true,
          "internalType": "address",
          "name": "owner",
          "type": "address"
        },
        {
          "indexed": true,
          "internalType": "address",
          "name": "approved",
          "type": "address"
        },
        {
          "indexed": true,
          "internalType": "uint256",
          "name": "tokenId",
          "type": "uint256"
        }
      ],
      "name": "Approval",
      "type": "event"
    },
    {
      "anonymous": false,
      "inputs": [
        {
          "indexed": true,
          "internalType": "address",
          "name": "owner",
          "type": "address"
        },
        {
          "indexed": true,
          "internalType": "address",
          "name": "operator",
          "type": "address"
        },
        {
          "indexed": false,
          "internalType": "bool",
          "name": "approved",
          "type": "bool"
        }
      ],
      "name": "ApprovalForAll",
      "type": "event"
    },
    {
      "anonymous": false,
      "inputs": [
        {
          "indexed": true,
          "internalType": "uint256",
          "name": "tokenId",
          "type": "uint256"
        }
      ],
      "name": "MemberExited",
      "type": "event"
    },
    {
      "anonymous": false,
      "inputs": [
        {
          "indexed": true,
          "internalType": "uint256",
          "name": "tokenId",
          "type": "uint256"
        },
        {
          "indexed": false,
          "internalType": "address",
          "name": "member",
          "type": "address"
        }
      ],
      "name": "MemberJoined",
      "type": "event"
    },
    {
      "anonymous": false,
      "inputs": [
        {
          "indexed": true,
          "internalType": "address",
          "name": "previousOwner",
          "type": "address"
        },
        {
          "indexed": true,
          "internalType": "address",
          "name": "newOwner",
          "type": "address"
        }
      ],
      "name": "OwnershipTransferred",
      "type": "event"
    },
    {
      "anonymous": false,
      "inputs": [
        {
          "indexed": true,
          "internalType": "address",
          "name": "from",
          "type": "address"
        },
        {
          "indexed": true,
          "internalType": "address",
          "name": "to",
          "type": "address"
        },
        {
          "indexed": true,
          "internalType": "uint256",
          "name": "tokenId",
          "type": "uint256"
        }
      ],
      "name": "Transfer",
      "type": "event"
    },
    {
      "inputs": [],
      "name": "MAX_MEMBERS",
      "outputs": [
        {
          "internalType": "uint256",
          "name": "",
          "type": "uint256"
        }
      ],
      "stateMutability": "view",
      "type": "function"
    },
    {
      "inputs": [
        {
          "internalType": "uint256",
          "name": "",
          "type": "uint256"
        }
      ],
      "name": "activeMembers",
      "outputs": [
        {
          "internalType": "uint256",
          "name": "",
          "type": "uint256"
        }
      ],
      "stateMutability": "view",
      "type": "function"
    },
    {
      "inputs": [
        {
          "internalType": "address",
          "name": "to",
          "type": "address"
        },
        {
          "internalType": "uint256",
          "name": "tokenId",
          "type": "uint256"
        }
      ],
      "name": "approve",
      "outputs": [],
      "stateMutability": "nonpayable",
      "type": "function"
    },
    {
      "inputs": [
        {
          "internalType": "address",
          "name": "owner",
          "type": "address"
        }
      ],
      "name": "balanceOf",
      "outputs": [
        {
          "internalType": "uint256",
          "name": "",
          "type": "uint256"
        }
      ],
      "stateMutability": "view",
      "type": "function"
    },
    {
      "inputs": [
        {
          "internalType": "uint256",
          "name": "tokenId",
          "type": "uint256"
        }
      ],
      "name": "exit",
      "outputs": [],
      "stateMutability": "nonpayable",
      "type": "function"
    },
    {
      "inputs": [
        {
          "internalType": "uint256",
          "name": "tokenId",
          "type": "uint256"
        }
      ],
      "name": "getApproved",
      "outputs": [
        {
          "internalType": "address",
          "name": "",
          "type": "address"
        }
      ],
      "stateMutability": "view",
      "type": "function"
    },
    {
      "inputs": [
        {
          "internalType": "address",
          "name": "",
          "type": "address"
        }
      ],
      "name": "hasJoined",
      "outputs": [
        {
          "internalType": "bool",
          "name": "",
          "type": "bool"
        }
      ],
      "stateMutability": "view",
      "type": "function"
    },
    {
      "inputs": [
        {
          "internalType": "address",
          "name": "owner",
          "type": "address"
        },
        {
          "internalType": "address",
          "name": "operator",
          "type": "address"
        }
      ],
      "name": "isApprovedForAll",
      "outputs": [
        {
          "internalType": "bool",
          "name": "",
          "type": "bool"
        }
      ],
      "stateMutability": "view",
      "type": "function"
    },
    {
      "inputs": [
        {
          "internalType": "uint256",
          "name": "tokenId",
          "type": "uint256"
        }
      ],
      "name": "isMemberActive",
      "outputs": [
        {
          "internalType": "bool",
          "name": "",
          "type": "bool"
        }
      ],
      "stateMutability": "view",
      "type": "function"
    },
    {
      "inputs": [
        {
          "internalType": "uint256",
          "name": "tokenId",
          "type": "uint256"
        }
      ],
      "name": "isMemberCurrent",
      "outputs": [
        {
          "internalType": "bool",
          "name": "",
          "type": "bool"
        }
      ],
      "stateMutability": "view",
      "type": "function"
    },
    {
      "inputs": [],
      "name": "join",
      "outputs": [],
      "stateMutability": "nonpayable",
      "type": "function"
    },
    {
      "inputs": [
        {
          "internalType": "uint256",
          "name": "tokenId",
          "type": "uint256"
        }
      ],
      "name": "joinedAt",
      "outputs": [
        {
          "internalType": "uint32",
          "name": "",
          "type": "uint32"
        }
      ],
      "stateMutability": "view",
      "type": "function"
    },
    {
      "inputs": [
        {
          "internalType": "uint256",
          "name": "",
          "type": "uint256"
        }
      ],
      "name": "members",
      "outputs": [
        {
          "internalType": "uint32",
          "name": "joinedAt",
          "type": "uint32"
        },
        {
          "internalType": "uint8",
          "name": "defaultCount",
          "type": "uint8"
        },
        {
          "internalType": "bool",
          "name": "isActive",
          "type": "bool"
        }
      ],
      "stateMutability": "view",
      "type": "function"
    },
    {
      "inputs": [],
      "name": "name",
      "outputs": [
        {
          "internalType": "string",
          "name": "",
          "type": "string"
        }
      ],
      "stateMutability": "view",
      "type": "function"
    },
    {
      "inputs": [],
      "name": "owner",
      "outputs": [
        {
          "internalType": "address",
          "name": "",
          "type": "address"
        }
      ],
      "stateMutability": "view",
      "type": "function"
    },
    {
      "inputs": [
        {
          "internalType": "uint256",
          "name": "tokenId",
          "type": "uint256"
        }
      ],
      "name": "ownerOf",
      "outputs": [
        {
          "internalType": "address",
          "name": "",
          "type": "address"
        }
      ],
      "stateMutability": "view",
      "type": "function"
    },
    {
      "inputs": [],
      "name": "renounceOwnership",
      "outputs": [],
      "stateMutability": "nonpayable",
      "type": "function"
    },
    {
      "inputs": [
        {
          "internalType": "address",
          "name": "from",
          "type": "address"
        },
        {
          "internalType": "address",
          "name": "to",
          "type": "address"
        },
        {
          "internalType": "uint256",
          "name": "tokenId",
          "type": "uint256"
        }
      ],
      "name": "safeTransferFrom",
      "outputs": [],
      "stateMutability": "nonpayable",
      "type": "function"
    },
    {
      "inputs": [
        {
          "internalType": "address",
          "name": "from",
          "type": "address"
        },
        {
          "internalType": "address",
          "name": "to",
          "type": "address"
        },
        {
          "internalType": "uint256",
          "name": "tokenId",
          "type": "uint256"
        },
        {
          "internalType": "bytes",
          "name": "data",
          "type": "bytes"
        }
      ],
      "name": "safeTransferFrom",
      "outputs": [],
      "stateMutability": "nonpayable",
      "type": "function"
    },
    {
      "inputs": [
        {
          "internalType": "address",
          "name": "operator",
          "type": "address"
        },
        {
          "internalType": "bool",
          "name": "approved",
          "type": "bool"
        }
      ],
      "name": "setApprovalForAll",
      "outputs": [],
      "stateMutability": "nonpayable",
      "type": "function"
    },
    {
      "inputs": [
        {
          "internalType": "bytes4",
          "name": "interfaceId",
          "type": "bytes4"
        }
      ],
      "name": "supportsInterface",
      "outputs": [
        {
          "internalType": "bool",
          "name": "",
          "type": "bool"
        }
      ],
      "stateMutability": "view",
      "type": "function"
    },
    {
      "inputs": [],
      "name": "symbol",
      "outputs": [
        {
          "internalType": "string",
          "name": "",
          "type": "string"
        }
      ],
      "stateMutability": "view",
      "type": "function"
    },
    {
      "inputs": [
        {
          "internalType": "uint256",
          "name": "tokenId",
          "type": "uint256"
        }
      ],
      "name": "tokenURI",
      "outputs": [
        {
          "internalType": "string",
          "name": "",
          "type": "string"
        }
      ],
      "stateMutability": "view",
      "type": "function"
    },
    {
      "inputs": [
        {
          "internalType": "address",
          "name": "from",
          "type": "address"
        },
        {
          "internalType": "address",
          "name": "to",
          "type": "address"
        },
        {
          "internalType": "uint256",
          "name": "tokenId",
          "type": "uint256"
        }
      ],
      "name": "transferFrom",
      "outputs": [],
      "stateMutability": "nonpayable",
      "type": "function"
    },
    {
      "inputs": [
        {
          "internalType": "address",
          "name": "newOwner",
          "type": "address"
        }
      ],
      "name": "transferOwnership",
      "outputs": [],
      "stateMutability": "nonpayable",
      "type": "function"
    },
    {
      "inputs": [],
      "name": "treasury",
      "outputs": [
        {
          "internalType": "contract ITreasury",
          "name": "",
          "type": "address"
        }
      ],
      "stateMutability": "view",
      "type": "function"
    },
    {
      "inputs": [
        {
          "internalType": "address",
          "name": "_newTreasury",
          "type": "address"
        }
      ],
      "name": "updateTreasury",
      "outputs": [],
      "stateMutability": "nonpayable",
      "type": "function"
    },
    {
      "inputs": [],
      "name": "zarStable",
      "outputs": [
        {
          "internalType": "contract IERC20",
          "name": "",
          "type": "address"
        }
      ],
      "stateMutability": "view",
      "type": "function"
    }
  ],
  "bytecode": "0x60806040523480156200001157600080fd5b50604051620038223803806200382283398181016040528101906200003791906200030b565b336040518060400160405280601681526020017f426c61636b20456d706f7765726d656e742046756e64000000000000000000008152506040518060400160405280600381526020017f42454600000000000000000000000000000000000000000000000000000000008152508160009081620000b59190620005cc565b508060019081620000c79190620005cc565b505050600073ffffffffffffffffffffffffffffffffffffffff168173ffffffffffffffffffffffffffffffffffffffff16036200013f5760006040517f1e4fbdf7000000000000000000000000000000000000000000000000000000008152600401620001369190620006c4565b60405180910390fd5b6200015081620001db60201b60201c565b5081600960006101000a81548173ffffffffffffffffffffffffffffffffffffffff021916908373ffffffffffffffffffffffffffffffffffffffff16021790555080600a60006101000a81548173ffffffffffffffffffffffffffffffffffffffff021916908373ffffffffffffffffffffffffffffffffffffffff1602179055505050620006e1565b6000600660009054906101000a900473ffffffffffffffffffffffffffffffffffffffff16905081600660006101000a81548173ffffffffffffffffffffffffffffffffffffffff021916908373ffffffffffffffffffffffffffffffffffffffff1602179055508173ffffffffffffffffffffffffffffffffffffffff168173ffffffffffffffffffffffffffffffffffffffff167f8be0079c531659141344cd1fd0a4f28419497f9722a3daafe3b4186f6b6457e060405160405180910390a35050565b600080fd5b600073ffffffffffffffffffffffffffffffffffffffff82169050919050565b6000620002d382620002a6565b9050919050565b620002e581620002c6565b8114620002f157600080fd5b50565b6000815190506200030581620002da565b92915050565b60008060408385031215620003255762000324620002a1565b5b60006200033585828601620002f4565b92505060206200034885828601620002f4565b9150509250929050565b600081519050919050565b7f4e487b7100000000000000000000000000000000000000000000000000000000600052604160045260246000fd5b7f4e487b7100000000000000000000000000000000000000000000000000000000600052602260045260246000fd5b60006002820490506001821680620003d457607f821691505b602082108103620003ea57620003e96200038c565b5b50919050565b60008190508160005260206000209050919050565b60006020601f8301049050919050565b600082821b905092915050565b600060088302620004547fffffffffffffffffffffffffffffffffffffffffffffffffffffffffffffffff8262000415565b62000460868362000415565b95508019841693508086168417925050509392505050565b6000819050919050565b6000819050919050565b6000620004ad620004a7620004a18462000478565b62000482565b62000478565b9050919050565b6000819050919050565b620004c9836200048c565b620004e1620004d882620004b4565b84845462000422565b825550505050565b600090565b620004f8620004e9565b62000505818484620004be565b505050565b5b818110156200052d5762000521600082620004ee565b6001810190506200050b565b5050565b601f8211156200057c576200054681620003f0565b620005518462000405565b8101602085101562000561578190505b62000579620005708562000405565b8301826200050a565b50505b505050565b600082821c905092915050565b6000620005a16000198460080262000581565b1980831691505092915050565b6000620005bc83836200058e565b9150826002028217905092915050565b620005d78262000352565b67ffffffffffffffff811115620005f357620005f26200035d565b5b620005ff8254620003bb565b6200060c82828562000531565b600060209050601f8311600181146200064457600084156200062f578287015190505b6200063b8582620005ae565b865550620006ab565b601f1984166200065486620003f0565b60005b828110156200067e5784890151825560018201915060208501945060208101905062000657565b868310156200069e57848901516200069a601f8916826200058e565b8355505b6001600288020188555050505b505050505050565b620006be81620002c6565b82525050565b6000602082019050620006db6000830184620006b3565b92915050565b61313180620006f16000396000f3fe608060405234801561001057600080fd5b50600436106101c45760003560e01c80637f51bb1f116100f9578063b688a36311610097578063d443c57c11610071578063d443c57c14610519578063e985e9c514610549578063ea0e35b114610579578063f2fde38b14610597576101c4565b8063b688a363146104c3578063b88d4fde146104cd578063c87b56dd146104e9576101c4565b80638da5cb5b116100d35780638da5cb5b1461043b57806393fd55df1461045957806395d89b4114610489578063a22cb465146104a7576101c4565b80637f51bb1f146103d35780637f8661a1146103ef578063877f4e121461040b576101c4565b806342842e0e1161016657806361d027b31161014057806361d027b31461034b5780636352211e1461036957806370a0823114610399578063715018a6146103c9576101c4565b806342842e0e146102df5780634e9275ed146102fb5780635daf08ca14610319576101c4565b8063095ea7b3116101a2578063095ea7b31461024757806323b872dd146102635780633aa355651461027f5780634186c4e8146102af576101c4565b806301ffc9a7146101c957806306fdde03146101f9578063081812fc14610217575b600080fd5b6101e360048036038101906101de91906123cf565b6105b3565b6040516101f09190612417565b60405180910390f35b610201610695565b60405161020e91906124c2565b60405180910390f35b610231600480360381019061022c919061251a565b610727565b60405161023e9190612588565b60405180910390f35b610261600480360381019061025c91906125cf565b610743565b005b61027d6004803603810190610278919061260f565b610759565b005b6102996004803603810190610294919061251a565b61085b565b6040516102a69190612417565b60405180910390f35b6102c960048036038101906102c4919061251a565b610900565b6040516102d69190612417565b60405180910390f35b6102f960048036038101906102f4919061260f565b61092d565b005b61030361094d565b60405161031091906126c1565b60405180910390f35b610333600480360381019061032e919061251a565b610973565b60405161034293929190612717565b60405180910390f35b6103536109c7565b604051610360919061276f565b60405180910390f35b610383600480360381019061037e919061251a565b6109ed565b6040516103909190612588565b60405180910390f35b6103b360048036038101906103ae919061278a565b6109ff565b6040516103c091906127c6565b60405180910390f35b6103d1610ab9565b005b6103ed60048036038101906103e8919061278a565b610acd565b005b6104096004803603810190610404919061251a565b610b19565b005b6104256004803603810190610420919061278a565b610d99565b6040516104329190612417565b60405180910390f35b610443610db9565b6040516104509190612588565b60405180910390f35b610473600480360381019061046e919061251a565b610de3565b60405161048091906127c6565b60405180910390f35b610491610e07565b60405161049e91906124c2565b60405180910390f35b6104c160048036038101906104bc919061280d565b610e99565b005b6104cb610eaf565b005b6104e760048036038101906104e29190612982565b611278565b005b61050360048036038101906104fe919061251a565b61129d565b60405161051091906124c2565b60405180910390f35b610533600480360381019061052e919061251a565b611306565b6040516105409190612a05565b60405180910390f35b610563600480360381019061055e9190612a20565b611336565b6040516105709190612417565b60405180910390f35b6105816113ca565b60405161058e91906127c6565b60405180910390f35b6105b160048036038101906105ac919061278a565b6113cf565b005b60007f80ac58cd000000000000000000000000000000000000000000000000000000007bffffffffffffffffffffffffffffffffffffffffffffffffffffffff1916827bffffffffffffffffffffffffffffffffffffffffffffffffffffffff1916148061067e57507f5b5e139f000000000000000000000000000000000000000000000000000000007bffffffffffffffffffffffffffffffffffffffffffffffffffffffff1916827bffffffffffffffffffffffffffffffffffffffffffffffffffffffff1916145b8061068e575061068d82611455565b5b9050919050565b6060600080546106a490612a8f565b80601f01602080910402602001604051908101604052809291908181526020018280546106d090612a8f565b801561071d5780601f106106f25761010080835404028352916020019161071d565b820191906000526020600020905b81548152906001019060200180831161070057829003601f168201915b5050505050905090565b6000610732826114bf565b5061073c82611547565b9050919050565b6107558282610750611584565b61158c565b5050565b600073ffffffffffffffffffffffffffffffffffffffff168273ffffffffffffffffffffffffffffffffffffffff16036107cb5760006040517f64a0ae920000000000000000000000000000000000000000000000000000000081526004016107c29190612588565b60405180910390fd5b60006107df83836107da611584565b61159e565b90508373ffffffffffffffffffffffffffffffffffffffff168173ffffffffffffffffffffffffffffffffffffffff1614610855578382826040517f64283d7b00000000000000000000000000000000000000000000000000000000815260040161084c93929190612ac0565b60405180910390fd5b50505050565b6000600960009054906101000a900473ffffffffffffffffffffffffffffffffffffffff1673ffffffffffffffffffffffffffffffffffffffff16638d55e131836040518263ffffffff1660e01b81526004016108b891906127c6565b602060405180830381865afa1580156108d5573d6000803e3d6000fd5b505050506040513d601f19601f820116820180604052508101906108f99190612b0c565b9050919050565b60006008600083815260200190815260200160002060000160059054906101000a900460ff169050919050565b61094883838360405180602001604052806000815250611278565b505050565b600a60009054906101000a900473ffffffffffffffffffffffffffffffffffffffff1681565b60086020528060005260406000206000915090508060000160009054906101000a900463ffffffff16908060000160049054906101000a900460ff16908060000160059054906101000a900460ff16905083565b600960009054906101000a900473ffffffffffffffffffffffffffffffffffffffff1681565b60006109f8826114bf565b9050919050565b60008073ffffffffffffffffffffffffffffffffffffffff168273ffffffffffffffffffffffffffffffffffffffff1603610a725760006040517f89c62b64000000000000000000000000000000000000000000000000000000008152600401610a699190612588565b60405180910390fd5b600360008373ffffffffffffffffffffffffffffffffffffffff1673ffffffffffffffffffffffffffffffffffffffff168152602001908152602001600020549050919050565b610ac16117b8565b610acb600061183f565b565b610ad56117b8565b80600960006101000a81548173ffffffffffffffffffffffffffffffffffffffff021916908373ffffffffffffffffffffffffffffffffffffffff16021790555050565b3373ffffffffffffffffffffffffffffffffffffffff16610b39826109ed565b73ffffffffffffffffffffffffffffffffffffffff1614610b8f576040517f08c379a0000000000000000000000000000000000000000000000000000000008152600401610b8690612b85565b60405180910390fd5b6008600082815260200190815260200160002060000160059054906101000a900460ff16610bf2576040517f08c379a0000000000000000000000000000000000000000000000000000000008152600401610be990612bf1565b60405180910390fd5b62ed4e006008600083815260200190815260200160002060000160009054906101000a900463ffffffff16610c279190612c40565b63ffffffff16421015610c6f576040517f08c379a0000000000000000000000000000000000000000000000000000000008152600401610c6690612cc4565b60405180910390fd5b60006008600083815260200190815260200160002060000160056101000a81548160ff02191690831515021790555060005b600780549050811015610d5f578160078281548110610cc357610cc2612ce4565b5b906000526020600020015403610d525760076001600780549050610ce79190612d13565b81548110610cf857610cf7612ce4565b5b906000526020600020015460078281548110610d1757610d16612ce4565b5b90600052602060002001819055506007805480610d3757610d36612d47565b5b60019003818190600052602060002001600090559055610d5f565b8080600101915050610ca1565b50807fbcba675a8a0c2e2f3d378264e9dc21ea80ba6e748d37fe295a12449e41a30a7b60405160405180910390a2610d9681611905565b50565b600b6020528060005260406000206000915054906101000a900460ff1681565b6000600660009054906101000a900473ffffffffffffffffffffffffffffffffffffffff16905090565b60078181548110610df357600080fd5b906000526020600020016000915090505481565b606060018054610e1690612a8f565b80601f0160208091040260200160405190810160405280929190818152602001828054610e4290612a8f565b8015610e8f5780601f10610e6457610100808354040283529160200191610e8f565b820191906000526020600020905b815481529060010190602001808311610e7257829003601f168201915b5050505050905090565b610eab610ea4611584565b838361198b565b5050565b600b60003373ffffffffffffffffffffffffffffffffffffffff1673ffffffffffffffffffffffffffffffffffffffff16815260200190815260200160002060009054906101000a900460ff1615610f3c576040517f08c379a0000000000000000000000000000000000000000000000000000000008152600401610f3390612dc2565b60405180910390fd5b600660078054905010610f84576040517f08c379a0000000000000000000000000000000000000000000000000000000008152600401610f7b90612e2e565b60405180910390fd5b60006001600780549050610f989190612e4e565b9050600a60009054906101000a900473ffffffffffffffffffffffffffffffffffffffff1673ffffffffffffffffffffffffffffffffffffffff166323b872dd3330633b9aca006040518463ffffffff1660e01b8152600401610ffd93929190612ebd565b6020604051808303816000875af115801561101c573d6000803e3d6000fd5b505050506040513d601f19601f820116820180604052508101906110409190612b0c565b61107f576040517f08c379a000000000000000000000000000000000000000000000000000000000815260040161107690612f40565b60405180910390fd5b6110893382611afa565b60405180606001604052804263ffffffff168152602001600060ff168152602001600115158152506008600083815260200190815260200160002060008201518160000160006101000a81548163ffffffff021916908363ffffffff16021790555060208201518160000160046101000a81548160ff021916908360ff16021790555060408201518160000160056101000a81548160ff0219169083151502179055509050506007819080600181540180825580915050600190039060005260206000200160009091909190915055600960009054906101000a900473ffffffffffffffffffffffffffffffffffffffff1673ffffffffffffffffffffffffffffffffffffffff166323d88e3d826040518263ffffffff1660e01b81526004016111b391906127c6565b600060405180830381600087803b1580156111cd57600080fd5b505af11580156111e1573d6000803e3d6000fd5b505050506001600b60003373ffffffffffffffffffffffffffffffffffffffff1673ffffffffffffffffffffffffffffffffffffffff16815260200190815260200160002060006101000a81548160ff021916908315150217905550807f78da64a590c3052953ad9e0a5546bbf12bb68ae7634e3fb2a774e22a8c6557c13360405161126d9190612588565b60405180910390a250565b611283848484610759565b61129761128e611584565b85858585611bf3565b50505050565b60606112a8826114bf565b5060006112b3611da4565b905060008151116112d357604051806020016040528060008152506112fe565b806112dd84611dbb565b6040516020016112ee929190612f9c565b6040516020818303038152906040525b915050919050565b60006008600083815260200190815260200160002060000160009054906101000a900463ffffffff169050919050565b6000600560008473ffffffffffffffffffffffffffffffffffffffff1673ffffffffffffffffffffffffffffffffffffffff16815260200190815260200160002060008373ffffffffffffffffffffffffffffffffffffffff1673ffffffffffffffffffffffffffffffffffffffff16815260200190815260200160002060009054906101000a900460ff16905092915050565b600681565b6113d76117b8565b600073ffffffffffffffffffffffffffffffffffffffff168173ffffffffffffffffffffffffffffffffffffffff16036114495760006040517f1e4fbdf70000000000000000000000000000000000000000000000000000000081526004016114409190612588565b60405180910390fd5b6114528161183f565b50565b60007f01ffc9a7000000000000000000000000000000000000000000000000000000007bffffffffffffffffffffffffffffffffffffffffffffffffffffffff1916827bffffffffffffffffffffffffffffffffffffffffffffffffffffffff1916149050919050565b6000806114cb83611e89565b9050600073ffffffffffffffffffffffffffffffffffffffff168173ffffffffffffffffffffffffffffffffffffffff160361153e57826040517f7e27328900000000000000000000000000000000000000000000000000000000815260040161153591906127c6565b60405180910390fd5b80915050919050565b60006004600083815260200190815260200160002060009054906101000a900473ffffffffffffffffffffffffffffffffffffffff169050919050565b600033905090565b6115998383836001611ec6565b505050565b6000806115aa84611e89565b9050600073ffffffffffffffffffffffffffffffffffffffff168373ffffffffffffffffffffffffffffffffffffffff16146115ec576115eb81848661208b565b5b600073ffffffffffffffffffffffffffffffffffffffff168173ffffffffffffffffffffffffffffffffffffffff161461167d5761162e600085600080611ec6565b6001600360008373ffffffffffffffffffffffffffffffffffffffff1673ffffffffffffffffffffffffffffffffffffffff168152602001908152602001600020600082825403925050819055505b600073ffffffffffffffffffffffffffffffffffffffff168573ffffffffffffffffffffffffffffffffffffffff1614611700576001600360008773ffffffffffffffffffffffffffffffffffffffff1673ffffffffffffffffffffffffffffffffffffffff168152602001908152602001600020600082825401925050819055505b846002600086815260200190815260200160002060006101000a81548173ffffffffffffffffffffffffffffffffffffffff021916908373ffffffffffffffffffffffffffffffffffffffff160217905550838573ffffffffffffffffffffffffffffffffffffffff168273ffffffffffffffffffffffffffffffffffffffff167fddf252ad1be2c89b69c2b068fc378daa952ba7f163c4a11628f55a4df523b3ef60405160405180910390a4809150509392505050565b6117c0611584565b73ffffffffffffffffffffffffffffffffffffffff166117de610db9565b73ffffffffffffffffffffffffffffffffffffffff161461183d57611801611584565b6040517f118cdaa70000000000000000000000000000000000000000000000000000000081526004016118349190612588565b60405180910390fd5b565b6000600660009054906101000a900473ffffffffffffffffffffffffffffffffffffffff16905081600660006101000a81548173ffffffffffffffffffffffffffffffffffffffff021916908373ffffffffffffffffffffffffffffffffffffffff1602179055508173ffffffffffffffffffffffffffffffffffffffff168173ffffffffffffffffffffffffffffffffffffffff167f8be0079c531659141344cd1fd0a4f28419497f9722a3daafe3b4186f6b6457e060405160405180910390a35050565b6000611914600083600061159e565b9050600073ffffffffffffffffffffffffffffffffffffffff168173ffffffffffffffffffffffffffffffffffffffff160361198757816040517f7e27328900000000000000000000000000000000000000000000000000000000815260040161197e91906127c6565b60405180910390fd5b5050565b600073ffffffffffffffffffffffffffffffffffffffff168273ffffffffffffffffffffffffffffffffffffffff16036119fc57816040517f5b08ba180000000000000000000000000000000000000000000000000000000081526004016119f39190612588565b60405180910390fd5b80600560008573ffffffffffffffffffffffffffffffffffffffff1673ffffffffffffffffffffffffffffffffffffffff16815260200190815260200160002060008473ffffffffffffffffffffffffffffffffffffffff1673ffffffffffffffffffffffffffffffffffffffff16815260200190815260200160002060006101000a81548160ff0219169083151502179055508173ffffffffffffffffffffffffffffffffffffffff168373ffffffffffffffffffffffffffffffffffffffff167f17307eab39ab6107e8899845ad3d59bd9653f200f220920489ca2b5937696c3183604051611aed9190612417565b60405180910390a3505050565b600073ffffffffffffffffffffffffffffffffffffffff168273ffffffffffffffffffffffffffffffffffffffff1603611b6c5760006040517f64a0ae92000000000000000000000000000000000000000000000000000000008152600401611b639190612588565b60405180910390fd5b6000611b7a8383600061159e565b9050600073ffffffffffffffffffffffffffffffffffffffff168173ffffffffffffffffffffffffffffffffffffffff1614611bee5760006040517f73c6ac6e000000000000000000000000000000000000000000000000000000008152600401611be59190612588565b60405180910390fd5b505050565b60008373ffffffffffffffffffffffffffffffffffffffff163b1115611d9d578273ffffffffffffffffffffffffffffffffffffffff1663150b7a02868685856040518563ffffffff1660e01b8152600401611c529493929190613015565b6020604051808303816000875af1925050508015611c8e57506040513d601f19601f82011682018060405250810190611c8b9190613076565b60015b611d12573d8060008114611cbe576040519150601f19603f3d011682016040523d82523d6000602084013e611cc3565b606091505b506000815103611d0a57836040517f64a0ae92000000000000000000000000000000000000000000000000000000008152600401611d019190612588565b60405180910390fd5b805181602001fd5b63150b7a0260e01b7bffffffffffffffffffffffffffffffffffffffffffffffffffffffff1916817bffffffffffffffffffffffffffffffffffffffffffffffffffffffff191614611d9b57836040517f64a0ae92000000000000000000000000000000000000000000000000000000008152600401611d929190612588565b60405180910390fd5b505b5050505050565b606060405180602001604052806000815250905090565b606060006001611dca8461214f565b01905060008167ffffffffffffffff811115611de957611de8612857565b5b6040519080825280601f01601f191660200182016040528015611e1b5781602001600182028036833780820191505090505b509050600082602001820190505b600115611e7e578080600190039150507f3031323334353637383961626364656600000000000000000000000000000000600a86061a8153600a8581611e7257611e716130a3565b5b04945060008503611e29575b819350505050919050565b60006002600083815260200190815260200160002060009054906101000a900473ffffffffffffffffffffffffffffffffffffffff169050919050565b8080611eff5750600073ffffffffffffffffffffffffffffffffffffffff168273ffffffffffffffffffffffffffffffffffffffff1614155b15612033576000611f0f846114bf565b9050600073ffffffffffffffffffffffffffffffffffffffff168373ffffffffffffffffffffffffffffffffffffffff1614158015611f7a57508273ffffffffffffffffffffffffffffffffffffffff168173ffffffffffffffffffffffffffffffffffffffff1614155b8015611f8d5750611f8b8184611336565b155b15611fcf57826040517fa9fbf51f000000000000000000000000000000000000000000000000000000008152600401611fc69190612588565b60405180910390fd5b811561203157838573ffffffffffffffffffffffffffffffffffffffff168273ffffffffffffffffffffffffffffffffffffffff167f8c5be1e5ebec7d5bd14f71427d1e84f3dd0314c0f7b2291e5b200ac8c7c3b92560405160405180910390a45b505b836004600085815260200190815260200160002060006101000a81548173ffffffffffffffffffffffffffffffffffffffff021916908373ffffffffffffffffffffffffffffffffffffffff16021790555050505050565b6120968383836122a2565b61214a57600073ffffffffffffffffffffffffffffffffffffffff168373ffffffffffffffffffffffffffffffffffffffff160361210b57806040517f7e27328900000000000000000000000000000000000000000000000000000000815260040161210291906127c6565b60405180910390fd5b81816040517f177e802f0000000000000000000000000000000000000000000000000000000081526004016121419291906130d2565b60405180910390fd5b505050565b600080600090507a184f03e93ff9f4daa797ed6e38ed64bf6a1f01000000000000000083106121ad577a184f03e93ff9f4daa797ed6e38ed64bf6a1f01000000000000000083816121a3576121a26130a3565b5b0492506040810190505b6d04ee2d6d415b85acef810000000083106121ea576d04ee2d6d415b85acef810000000083816121e0576121df6130a3565b5b0492506020810190505b662386f26fc10000831061221957662386f26fc10000838161220f5761220e6130a3565b5b0492506010810190505b6305f5e1008310612242576305f5e1008381612238576122376130a3565b5b0492506008810190505b612710831061226757612710838161225d5761225c6130a3565b5b0492506004810190505b6064831061228a57606483816122805761227f6130a3565b5b0492506002810190505b600a8310612299576001810190505b80915050919050565b60008073ffffffffffffffffffffffffffffffffffffffff168373ffffffffffffffffffffffffffffffffffffffff161415801561235a57508273ffffffffffffffffffffffffffffffffffffffff168473ffffffffffffffffffffffffffffffffffffffff16148061231b575061231a8484611336565b5b8061235957508273ffffffffffffffffffffffffffffffffffffffff1661234183611547565b73ffffffffffffffffffffffffffffffffffffffff16145b5b90509392505050565b6000604051905090565b600080fd5b600080fd5b60007fffffffff0000000000000000000000000000000000000000000000000000000082169050919050565b6123ac81612377565b81146123b757600080fd5b50565b6000813590506123c9816123a3565b92915050565b6000602082840312156123e5576123e461236d565b5b60006123f3848285016123ba565b91505092915050565b60008115159050919050565b612411816123fc565b82525050565b600060208201905061242c6000830184612408565b92915050565b600081519050919050565b600082825260208201905092915050565b60005b8381101561246c578082015181840152602081019050612451565b60008484015250505050565b6000601f19601f8301169050919050565b600061249482612432565b61249e818561243d565b93506124ae81856020860161244e565b6124b781612478565b840191505092915050565b600060208201905081810360008301526124dc8184612489565b905092915050565b6000819050919050565b6124f7816124e4565b811461250257600080fd5b50565b600081359050612514816124ee565b92915050565b6000602082840312156125305761252f61236d565b5b600061253e84828501612505565b91505092915050565b600073ffffffffffffffffffffffffffffffffffffffff82169050919050565b600061257282612547565b9050919050565b61258281612567565b82525050565b600060208201905061259d6000830184612579565b92915050565b6125ac81612567565b81146125b757600080fd5b50565b6000813590506125c9816125a3565b92915050565b600080604083850312156125e6576125e561236d565b5b60006125f4858286016125ba565b925050602061260585828601612505565b9150509250929050565b6000806000606084860312156126285761262761236d565b5b6000612636868287016125ba565b9350506020612647868287016125ba565b925050604061265886828701612505565b9150509250925092565b6000819050919050565b600061268761268261267d84612547565b612662565b612547565b9050919050565b60006126998261266c565b9050919050565b60006126ab8261268e565b9050919050565b6126bb816126a0565b82525050565b60006020820190506126d660008301846126b2565b92915050565b600063ffffffff82169050919050565b6126f5816126dc565b82525050565b600060ff82169050919050565b612711816126fb565b82525050565b600060608201905061272c60008301866126ec565b6127396020830185612708565b6127466040830184612408565b949350505050565b60006127598261268e565b9050919050565b6127698161274e565b82525050565b60006020820190506127846000830184612760565b92915050565b6000602082840312156127a05761279f61236d565b5b60006127ae848285016125ba565b91505092915050565b6127c0816124e4565b82525050565b60006020820190506127db60008301846127b7565b92915050565b6127ea816123fc565b81146127f557600080fd5b50565b600081359050612807816127e1565b92915050565b600080604083850312156128245761282361236d565b5b6000612832858286016125ba565b9250506020612843858286016127f8565b9150509250929050565b600080fd5b600080fd5b7f4e487b7100000000000000000000000000000000000000000000000000000000600052604160045260246000fd5b61288f82612478565b810181811067ffffffffffffffff821117156128ae576128ad612857565b5b80604052505050565b60006128c1612363565b90506128cd8282612886565b919050565b600067ffffffffffffffff8211156128ed576128ec612857565b5b6128f682612478565b9050602081019050919050565b82818337600083830152505050565b6000612925612920846128d2565b6128b7565b90508281526020810184848401111561294157612940612852565b5b61294c848285612903565b509392505050565b600082601f8301126129695761296861284d565b5b8135612979848260208601612912565b91505092915050565b6000806000806080858703121561299c5761299b61236d565b5b60006129aa878288016125ba565b94505060206129bb878288016125ba565b93505060406129cc87828801612505565b925050606085013567ffffffffffffffff8111156129ed576129ec612372565b5b6129f987828801612954565b91505092959194509250565b6000602082019050612a1a60008301846126ec565b92915050565b60008060408385031215612a3757612a3661236d565b5b6000612a45858286016125ba565b9250506020612a56858286016125ba565b9150509250929050565b7f4e487b7100000000000000000000000000000000000000000000000000000000600052602260045260246000fd5b60006002820490506001821680612aa757607f821691505b602082108103612aba57612ab9612a60565b5b50919050565b6000606082019050612ad56000830186612579565b612ae260208301856127b7565b612aef6040830184612579565b949350505050565b600081519050612b06816127e1565b92915050565b600060208284031215612b2257612b2161236d565b5b6000612b3084828501612af7565b91505092915050565b7f4e6f74206f776e65720000000000000000000000000000000000000000000000600082015250565b6000612b6f60098361243d565b9150612b7a82612b39565b602082019050919050565b60006020820190508181036000830152612b9e81612b62565b9050919050565b7f496e616374697665000000000000000000000000000000000000000000000000600082015250565b6000612bdb60088361243d565b9150612be682612ba5565b602082019050919050565b60006020820190508181036000830152612c0a81612bce565b9050919050565b7f4e487b7100000000000000000000000000000000000000000000000000000000600052601160045260246000fd5b6000612c4b826126dc565b9150612c56836126dc565b9250828201905063ffffffff811115612c7257612c71612c11565b5b92915050565b7f4379636c65206e6f7420636f6d706c6574650000000000000000000000000000600082015250565b6000612cae60128361243d565b9150612cb982612c78565b602082019050919050565b60006020820190508181036000830152612cdd81612ca1565b9050919050565b7f4e487b7100000000000000000000000000000000000000000000000000000000600052603260045260246000fd5b6000612d1e826124e4565b9150612d29836124e4565b9250828203905081811115612d4157612d40612c11565b5b92915050565b7f4e487b7100000000000000000000000000000000000000000000000000000000600052603160045260246000fd5b7f416c72656164792061206d656d62657200000000000000000000000000000000600082015250565b6000612dac60108361243d565b9150612db782612d76565b602082019050919050565b60006020820190508181036000830152612ddb81612d9f565b9050919050565b7f4d6178206d656d62657273207265616368656400000000000000000000000000600082015250565b6000612e1860138361243d565b9150612e2382612de2565b602082019050919050565b60006020820190508181036000830152612e4781612e0b565b9050919050565b6000612e59826124e4565b9150612e64836124e4565b9250828201905080821115612e7c57612e7b612c11565b5b92915050565b6000819050919050565b6000612ea7612ea2612e9d84612e82565b612662565b6124e4565b9050919050565b612eb781612e8c565b82525050565b6000606082019050612ed26000830186612579565b612edf6020830185612579565b612eec6040830184612eae565b949350505050565b7f5472616e73666572206661696c65640000000000000000000000000000000000600082015250565b6000612f2a600f8361243d565b9150612f3582612ef4565b602082019050919050565b60006020820190508181036000830152612f5981612f1d565b9050919050565b600081905092915050565b6000612f7682612432565b612f808185612f60565b9350612f9081856020860161244e565b80840191505092915050565b6000612fa88285612f6b565b9150612fb48284612f6b565b91508190509392505050565b600081519050919050565b600082825260208201905092915050565b6000612fe782612fc0565b612ff18185612fcb565b935061300181856020860161244e565b61300a81612478565b840191505092915050565b600060808201905061302a6000830187612579565b6130376020830186612579565b61304460408301856127b7565b81810360608301526130568184612fdc565b905095945050505050565b600081519050613070816123a3565b92915050565b60006020828403121561308c5761308b61236d565b5b600061309a84828501613061565b91505092915050565b7f4e487b7100000000000000000000000000000000000000000000000000000000600052601260045260246000fd5b60006040820190506130e76000830185612579565b6130f460208301846127b7565b939250505056fea2646970667358221220b9cdf5f580bee9e60361f53400de416083290618c106d10b189ba73c9955799764736f6c63430008180033",
  "linkReferences": {},
  "deployedLinkReferences": {}
}