{
  "_format": "hh-sol-artifact-1",
  "contractName": "Treasury",
  "sourceName": "contracts/Treasury.sol",
  "abi": [
    {
      "inputs": [
        {
          "internalType": "address",
          "name": "_nftAddress",
          "type": "address"
        },
        {
          "internalType": "address",
          "name": "_stableCoin",
          "type": "address"
        }
      ],
      "stateMutability": "nonpayable",
      "type": "constructor"
    },
    {
      "inputs": [],
      "name": "CONTRIBUTION_AMOUNT",
      "outputs": [
        {
          "internalType": "uint256",
          "name": "",
          "type": "uint256"
        }
      ],
      "stateMutability": "view",
      "type": "function"
    },
    {
      "inputs": [
        {
          "internalType": "uint256",
          "name": "tokenId",
          "type": "uint256"
        }
      ],
      "name": "applyPenalty",
      "outputs": [],
      "stateMutability": "nonpayable",
      "type": "function"
    },
    {
      "inputs": [
        {
          "internalType": "uint256",
          "name": "tokenId",
          "type": "uint256"
        }
      ],
      "name": "contribute",
      "outputs": [],
      "stateMutability": "nonpayable",
      "type": "function"
    },
    {
      "inputs": [],
      "name": "currentCycle",
      "outputs": [
        {
          "internalType": "uint256",
          "name": "",
          "type": "uint256"
        }
      ],
      "stateMutability": "view",
      "type": "function"
    },
    {
      "inputs": [],
      "name": "cycleStartTime",
      "outputs": [
        {
          "internalType": "uint256",
          "name": "",
          "type": "uint256"
        }
      ],
      "stateMutability": "view",
      "type": "function"
    },
    {
      "inputs": [],
      "name": "defiBalance",
      "outputs": [
        {
          "internalType": "uint256",
          "name": "",
          "type": "uint256"
        }
      ],
      "stateMutability": "view",
      "type": "function"
    },
    {
      "inputs": [
        {
          "internalType": "uint256",
          "name": "",
          "type": "uint256"
        }
      ],
      "name": "hasContributed",
      "outputs": [
        {
          "internalType": "bool",
          "name": "",
          "type": "bool"
        }
      ],
      "stateMutability": "view",
      "type": "function"
    },
    {
      "inputs": [
        {
          "internalType": "uint256",
          "name": "tokenId",
          "type": "uint256"
        }
      ],
      "name": "initializeMember",
      "outputs": [],
      "stateMutability": "nonpayable",
      "type": "function"
    },
    {
      "inputs": [
        {
          "internalType": "uint256",
          "name": "",
          "type": "uint256"
        }
      ],
      "name": "memberData",
      "outputs": [
        {
          "internalType": "uint8",
          "name": "defaults",
          "type": "uint8"
        },
        {
          "internalType": "uint256",
          "name": "contributionBalance",
          "type": "uint256"
        }
      ],
      "stateMutability": "view",
      "type": "function"
    },
    {
      "inputs": [],
      "name": "nftContract",
      "outputs": [
        {
          "internalType": "contract StockvelNFT",
          "name": "",
          "type": "address"
        }
      ],
      "stateMutability": "view",
      "type": "function"
    },
    {
      "inputs": [],
      "name": "payoutIndex",
      "outputs": [
        {
          "internalType": "uint256",
          "name": "",
          "type": "uint256"
        }
      ],
      "stateMutability": "view",
      "type": "function"
    },
    {
      "inputs": [
        {
          "internalType": "uint256",
          "name": "",
          "type": "uint256"
        }
      ],
      "name": "payoutOrder",
      "outputs": [
        {
          "internalType": "uint256",
          "name": "",
          "type": "uint256"
        }
      ],
      "stateMutability": "view",
      "type": "function"
    },
    {
      "inputs": [
        {
          "internalType": "uint256",
          "name": "tokenId",
          "type": "uint256"
        }
      ],
      "name": "processExit",
      "outputs": [
        {
          "internalType": "uint256",
          "name": "",
          "type": "uint256"
        }
      ],
      "stateMutability": "nonpayable",
      "type": "function"
    },
    {
      "inputs": [],
      "name": "reserveFund",
      "outputs": [
        {
          "internalType": "uint256",
          "name": "",
          "type": "uint256"
        }
      ],
      "stateMutability": "view",
      "type": "function"
    },
    {
      "inputs": [],
      "name": "savingsBalance",
      "outputs": [
        {
          "internalType": "uint256",
          "name": "",
          "type": "uint256"
        }
      ],
      "stateMutability": "view",
      "type": "function"
    },
    {
      "inputs": [],
      "name": "stableCoin",
      "outputs": [
        {
          "internalType": "contract IERC20",
          "name": "",
          "type": "address"
        }
      ],
      "stateMutability": "view",
      "type": "function"
    }
  ],
  "bytecode": "0x60806040526040518060c00160405280600160ff168152602001600260ff168152602001600360ff168152602001600460ff168152602001600560ff168152602001600660ff1681525060089060066200005b9291906200011f565b503480156200006957600080fd5b50604051620020493803806200204983398181016040528101906200008f9190620001ff565b806000806101000a81548173ffffffffffffffffffffffffffffffffffffffff021916908373ffffffffffffffffffffffffffffffffffffffff16021790555081600160006101000a81548173ffffffffffffffffffffffffffffffffffffffff021916908373ffffffffffffffffffffffffffffffffffffffff16021790555042600681905550505062000246565b82805482825590600052602060002090810192821562000163579160200282015b8281111562000162578251829060ff1690559160200191906001019062000140565b5b50905062000172919062000176565b5090565b5b808211156200019157600081600090555060010162000177565b5090565b600080fd5b600073ffffffffffffffffffffffffffffffffffffffff82169050919050565b6000620001c7826200019a565b9050919050565b620001d981620001ba565b8114620001e557600080fd5b50565b600081519050620001f981620001ce565b92915050565b6000806040838503121562000219576200021862000195565b5b60006200022985828601620001e8565b92505060206200023c85828601620001e8565b9150509250929050565b611df380620002566000396000f3fe608060405234801561001057600080fd5b50600436106101005760003560e01c8063ad78709611610097578063d56d229d11610066578063d56d229d1461028c578063eace33d3146102aa578063ed9c543e146102da578063f6a39c73146102f857610100565b8063ad78709614610216578063b7f92b7114610234578063bab2f55214610252578063c1cbbca71461027057610100565b80632df05a3e116100d35780632df05a3e1461019e578063335e536c146101bc578063992642e5146101da5780639b0fd24d146101f857610100565b80630a5d264a146101055780630b529a17146101215780630be76f801461015157806323d88e3d14610182575b600080fd5b61011f600480360381019061011a91906114c6565b610328565b005b61013b600480360381019061013691906114c6565b6105ab565b6040516101489190611502565b60405180910390f35b61016b600480360381019061016691906114c6565b6105cf565b604051610179929190611539565b60405180910390f35b61019c600480360381019061019791906114c6565b610600565b005b6101a6610781565b6040516101b39190611502565b60405180910390f35b6101c4610787565b6040516101d19190611502565b60405180910390f35b6101e261078d565b6040516101ef91906115e1565b60405180910390f35b6102006107b1565b60405161020d9190611502565b60405180910390f35b61021e6107b7565b60405161022b9190611502565b60405180910390f35b61023c6107bd565b6040516102499190611502565b60405180910390f35b61025a6107c3565b6040516102679190611502565b60405180910390f35b61028a600480360381019061028591906114c6565b6107c9565b005b610294610bd6565b6040516102a1919061161d565b60405180910390f35b6102c460048036038101906102bf91906114c6565b610bfc565b6040516102d19190611653565b60405180910390f35b6102e2610c1c565b6040516102ef9190611502565b60405180910390f35b610312600480360381019061030d91906114c6565b610c24565b60405161031f9190611502565b60405180910390f35b600a600082815260200190815260200160002060009054906101000a900460ff1615610389576040517f08c379a0000000000000000000000000000000000000000000000000000000008152600401610380906116cb565b60405180910390fd5b620d2f0060065461039a919061171a565b42116103db576040517f08c379a00000000000000000000000000000000000000000000000000000000081526004016103d29061179a565b60405180910390fd5b60096000828152602001908152602001600020600001600081819054906101000a900460ff168092919061040e906117ba565b91906101000a81548160ff021916908360ff1602179055505060036009600083815260200190815260200160002060000160009054906101000a900460ff1660ff16106105a85760008054906101000a900473ffffffffffffffffffffffffffffffffffffffff1673ffffffffffffffffffffffffffffffffffffffff1663a9059cbb600160009054906101000a900473ffffffffffffffffffffffffffffffffffffffff16633b9aca006040518363ffffffff1660e01b81526004016104d6929190611804565b6020604051808303816000875af11580156104f5573d6000803e3d6000fd5b505050506040513d601f19601f820116820180604052508101906105199190611859565b50600160009054906101000a900473ffffffffffffffffffffffffffffffffffffffff1673ffffffffffffffffffffffffffffffffffffffff16637f8661a1826040518263ffffffff1660e01b81526004016105759190611502565b600060405180830381600087803b15801561058f57600080fd5b505af11580156105a3573d6000803e3d6000fd5b505050505b50565b600881815481106105bb57600080fd5b906000526020600020016000915090505481565b60096020528060005260406000206000915090508060000160009054906101000a900460ff16908060010154905082565b600160009054906101000a900473ffffffffffffffffffffffffffffffffffffffff1673ffffffffffffffffffffffffffffffffffffffff163373ffffffffffffffffffffffffffffffffffffffff1614610690576040517f08c379a0000000000000000000000000000000000000000000000000000000008152600401610687906118d2565b60405180910390fd5b600160009054906101000a900473ffffffffffffffffffffffffffffffffffffffff1673ffffffffffffffffffffffffffffffffffffffff163373ffffffffffffffffffffffffffffffffffffffff1614610720576040517f08c379a0000000000000000000000000000000000000000000000000000000008152600401610717906118d2565b60405180910390fd5b6040518060400160405280600060ff168152602001633b9aca008152506009600083815260200190815260200160002060008201518160000160006101000a81548160ff021916908360ff1602179055506020820151816001015590505050565b60075481565b60065481565b60008054906101000a900473ffffffffffffffffffffffffffffffffffffffff1681565b60035481565b60025481565b60045481565b60055481565b3373ffffffffffffffffffffffffffffffffffffffff16600160009054906101000a900473ffffffffffffffffffffffffffffffffffffffff1673ffffffffffffffffffffffffffffffffffffffff16636352211e836040518263ffffffff1660e01b815260040161083b9190611502565b602060405180830381865afa158015610858573d6000803e3d6000fd5b505050506040513d601f19601f8201168201806040525081019061087c919061191e565b73ffffffffffffffffffffffffffffffffffffffff16146108d2576040517f08c379a00000000000000000000000000000000000000000000000000000000081526004016108c990611997565b60405180910390fd5b600160009054906101000a900473ffffffffffffffffffffffffffffffffffffffff1673ffffffffffffffffffffffffffffffffffffffff16634186c4e8826040518263ffffffff1660e01b815260040161092d9190611502565b602060405180830381865afa15801561094a573d6000803e3d6000fd5b505050506040513d601f19601f8201168201806040525081019061096e9190611859565b6109ad576040517f08c379a00000000000000000000000000000000000000000000000000000000081526004016109a490611a03565b60405180910390fd5b620d2f006006546109be919061171a565b421115610a00576040517f08c379a00000000000000000000000000000000000000000000000000000000081526004016109f790611a6f565b60405180910390fd5b60008054906101000a900473ffffffffffffffffffffffffffffffffffffffff1673ffffffffffffffffffffffffffffffffffffffff166323b872dd3330633b9aca006040518463ffffffff1660e01b8152600401610a6193929190611a8f565b6020604051808303816000875af1158015610a80573d6000803e3d6000fd5b505050506040513d601f19601f82011682018060405250810190610aa49190611859565b610ae3576040517f08c379a0000000000000000000000000000000000000000000000000000000008152600401610ada90611b12565b60405180910390fd5b60006002633b9aca00610af69190611b61565b905060006004633b9aca00610b0b9190611b61565b905060006004633b9aca00610b209190611b61565b905081600254610b30919061171a565b60028190555080600354610b44919061171a565b600381905550826009600086815260200190815260200160002060010154610b6c919061171a565b60096000868152602001908152602001600020600101819055506001600a600086815260200190815260200160002060006101000a81548160ff021916908315150217905550610bba6110e5565b15610bd057610bc761115d565b610bcf611331565b5b50505050565b600160009054906101000a900473ffffffffffffffffffffffffffffffffffffffff1681565b600a6020528060005260406000206000915054906101000a900460ff1681565b633b9aca0081565b6000600160009054906101000a900473ffffffffffffffffffffffffffffffffffffffff1673ffffffffffffffffffffffffffffffffffffffff16634186c4e8836040518263ffffffff1660e01b8152600401610c819190611502565b602060405180830381865afa158015610c9e573d6000803e3d6000fd5b505050506040513d601f19601f82011682018060405250810190610cc29190611859565b610d01576040517f08c379a0000000000000000000000000000000000000000000000000000000008152600401610cf890611a03565b60405180910390fd5b62ed4e00600160009054906101000a900473ffffffffffffffffffffffffffffffffffffffff1673ffffffffffffffffffffffffffffffffffffffff1663d443c57c846040518263ffffffff1660e01b8152600401610d609190611502565b602060405180830381865afa158015610d7d573d6000803e3d6000fd5b505050506040513d601f19601f82011682018060405250810190610da19190611bce565b610dab9190611bfb565b63ffffffff16421015610df3576040517f08c379a0000000000000000000000000000000000000000000000000000000008152600401610dea90611c7f565b60405180910390fd5b6000600454600354600254610e08919061171a565b610e12919061171a565b90506000600682610e239190611b61565b905060006064604683610e369190611c9f565b610e409190611b61565b905060005b6008805490508110156110ad578560088281548110610e6757610e66611ce1565b5b906000526020600020015414158015610f365750600160009054906101000a900473ffffffffffffffffffffffffffffffffffffffff1673ffffffffffffffffffffffffffffffffffffffff16634186c4e860088381548110610ecd57610ecc611ce1565b5b90600052602060002001546040518263ffffffff1660e01b8152600401610ef49190611502565b602060405180830381865afa158015610f11573d6000803e3d6000fd5b505050506040513d601f19601f82011682018060405250810190610f359190611859565b5b156110a05760008054906101000a900473ffffffffffffffffffffffffffffffffffffffff1673ffffffffffffffffffffffffffffffffffffffff1663a9059cbb600160009054906101000a900473ffffffffffffffffffffffffffffffffffffffff1673ffffffffffffffffffffffffffffffffffffffff16636352211e60088581548110610fc957610fc8611ce1565b5b90600052602060002001546040518263ffffffff1660e01b8152600401610ff09190611502565b602060405180830381865afa15801561100d573d6000803e3d6000fd5b505050506040513d601f19601f82011682018060405250810190611031919061191e565b60058561103e9190611b61565b6040518363ffffffff1660e01b815260040161105b929190611804565b6020604051808303816000875af115801561107a573d6000803e3d6000fd5b505050506040513d601f19601f8201168201806040525081019061109e9190611859565b505b8080600101915050610e45565b506064601e836110bd9190611c9f565b6110c79190611b61565b6004546110d4919061171a565b600481905550809350505050919050565b600080600090505b60088054905081101561115457600a60006008838154811061111257611111611ce1565b5b9060005260206000200154815260200190815260200160002060009054906101000a900460ff1661114757600091505061115a565b80806001019150506110ed565b50600190505b90565b600060086007548154811061117557611174611ce1565b5b90600052602060002001549050600061118d826113ba565b905060008160096000858152602001908152602001600020600101546111b39190611d10565b905060008054906101000a900473ffffffffffffffffffffffffffffffffffffffff1673ffffffffffffffffffffffffffffffffffffffff1663a9059cbb600160009054906101000a900473ffffffffffffffffffffffffffffffffffffffff1673ffffffffffffffffffffffffffffffffffffffff16636352211e866040518263ffffffff1660e01b815260040161124c9190611502565b602060405180830381865afa158015611269573d6000803e3d6000fd5b505050506040513d601f19601f8201168201806040525081019061128d919061191e565b836040518363ffffffff1660e01b81526004016112ab929190611804565b6020604051808303816000875af11580156112ca573d6000803e3d6000fd5b505050506040513d601f19601f820116820180604052508101906112ee9190611859565b50600060096000858152602001908152602001600020600101819055506006600160075461131c919061171a565b6113269190611d44565b600781905550505050565b6005600081548092919061134490611d75565b91905055504260068190555060005b6008805490508110156113b7576000600a60006008848154811061137a57611379611ce1565b5b9060005260206000200154815260200190815260200160002060006101000a81548160ff0219169083151502179055508080600101915050611353565b50565b60008060016009600085815260200190815260200160002060000160009054906101000a900460ff1660ff160361140357600a633b9aca006113fc9190611b61565b9050611452565b60026009600085815260200190815260200160002060000160009054906101000a900460ff1660ff160361145157600a6004633b9aca006114449190611c9f565b61144e9190611b61565b90505b5b60006009600085815260200190815260200160002060000160006101000a81548160ff021916908360ff16021790555080915050919050565b600080fd5b6000819050919050565b6114a381611490565b81146114ae57600080fd5b50565b6000813590506114c08161149a565b92915050565b6000602082840312156114dc576114db61148b565b5b60006114ea848285016114b1565b91505092915050565b6114fc81611490565b82525050565b600060208201905061151760008301846114f3565b92915050565b600060ff82169050919050565b6115338161151d565b82525050565b600060408201905061154e600083018561152a565b61155b60208301846114f3565b9392505050565b600073ffffffffffffffffffffffffffffffffffffffff82169050919050565b6000819050919050565b60006115a76115a261159d84611562565b611582565b611562565b9050919050565b60006115b98261158c565b9050919050565b60006115cb826115ae565b9050919050565b6115db816115c0565b82525050565b60006020820190506115f660008301846115d2565b92915050565b6000611607826115ae565b9050919050565b611617816115fc565b82525050565b6000602082019050611632600083018461160e565b92915050565b60008115159050919050565b61164d81611638565b82525050565b60006020820190506116686000830184611644565b92915050565b600082825260208201905092915050565b7f436f6e747269627574696f6e206d616465000000000000000000000000000000600082015250565b60006116b560118361166e565b91506116c08261167f565b602082019050919050565b600060208201905081810360008301526116e4816116a8565b9050919050565b7f4e487b7100000000000000000000000000000000000000000000000000000000600052601160045260246000fd5b600061172582611490565b915061173083611490565b9250828201905080821115611748576117476116eb565b5b92915050565b7f477261636520706572696f64206f6e676f696e67000000000000000000000000600082015250565b600061178460148361166e565b915061178f8261174e565b602082019050919050565b600060208201905081810360008301526117b381611777565b9050919050565b60006117c58261151d565b915060ff82036117d8576117d76116eb565b5b600182019050919050565b60006117ee82611562565b9050919050565b6117fe816117e3565b82525050565b600060408201905061181960008301856117f5565b61182660208301846114f3565b9392505050565b61183681611638565b811461184157600080fd5b50565b6000815190506118538161182d565b92915050565b60006020828403121561186f5761186e61148b565b5b600061187d84828501611844565b91505092915050565b7f556e617574686f72697a65640000000000000000000000000000000000000000600082015250565b60006118bc600c8361166e565b91506118c782611886565b602082019050919050565b600060208201905081810360008301526118eb816118af565b9050919050565b6118fb816117e3565b811461190657600080fd5b50565b600081519050611918816118f2565b92915050565b6000602082840312156119345761193361148b565b5b600061194284828501611909565b91505092915050565b7f4e6f74206d656d62657200000000000000000000000000000000000000000000600082015250565b6000611981600a8361166e565b915061198c8261194b565b602082019050919050565b600060208201905081810360008301526119b081611974565b9050919050565b7f496e616374697665000000000000000000000000000000000000000000000000600082015250565b60006119ed60088361166e565b91506119f8826119b7565b602082019050919050565b60006020820190508181036000830152611a1c816119e0565b9050919050565b7f4c61746520636f6e747269627574696f6e000000000000000000000000000000600082015250565b6000611a5960118361166e565b9150611a6482611a23565b602082019050919050565b60006020820190508181036000830152611a8881611a4c565b9050919050565b6000606082019050611aa460008301866117f5565b611ab160208301856117f5565b611abe60408301846114f3565b949350505050565b7f5472616e73666572206661696c65640000000000000000000000000000000000600082015250565b6000611afc600f8361166e565b9150611b0782611ac6565b602082019050919050565b60006020820190508181036000830152611b2b81611aef565b9050919050565b7f4e487b7100000000000000000000000000000000000000000000000000000000600052601260045260246000fd5b6000611b6c82611490565b9150611b7783611490565b925082611b8757611b86611b32565b5b828204905092915050565b600063ffffffff82169050919050565b611bab81611b92565b8114611bb657600080fd5b50565b600081519050611bc881611ba2565b92915050565b600060208284031215611be457611be361148b565b5b6000611bf284828501611bb9565b91505092915050565b6000611c0682611b92565b9150611c1183611b92565b9250828201905063ffffffff811115611c2d57611c2c6116eb565b5b92915050565b7f4379636c65206e6f7420636f6d706c6574650000000000000000000000000000600082015250565b6000611c6960128361166e565b9150611c7482611c33565b602082019050919050565b60006020820190508181036000830152611c9881611c5c565b9050919050565b6000611caa82611490565b9150611cb583611490565b9250828202611cc381611490565b91508282048414831517611cda57611cd96116eb565b5b5092915050565b7f4e487b7100000000000000000000000000000000000000000000000000000000600052603260045260246000fd5b6000611d1b82611490565b9150611d2683611490565b9250828203905081811115611d3e57611d3d6116eb565b5b92915050565b6000611d4f82611490565b9150611d5a83611490565b925082611d6a57611d69611b32565b5b828206905092915050565b6000611d8082611490565b91507fffffffffffffffffffffffffffffffffffffffffffffffffffffffffffffffff8203611db257611db16116eb565b5b60018201905091905056fea2646970667358221220e3f93efa81812c26ece6a21ef6ac7b8a4fd8786cca0d1e1a5fe1aeb789390c6464736f6c63430008180033",
  "linkReferences": {},
  "deployedLinkReferences": {}
}